S01400006E756D6265725F6C696768742E7372656310
S11300000C942A000C9447000C9447000C9447006D
S11300100C9447000C9447000C9447000C94470040
S11300200C9447000C9447000C9447000C94470030
S11300300C9447000C9447000C9447000C94470020
S11300400C9447000C9447000C9447000C94470010
S11300500C94470011241FBECFE5D4E0DEBFCDBF12
S113006010E0A0E6B0E0E0E1F1E002C005900D92FE
S1130070AC36B107D9F710E0ACE6B0E001C01D9290
S1130080A037B107E1F70E9476000C9486000C9427
S11300900000549A80B5866880BD83E389B90895C9
S11300A010926E0010926D00EFE6F0E080E090E0B8
S11300B05F9BFECF2CB12193019690936E008093A9
S11300C06D008A309105A1F71092790080E690E0E6
S11300D06FE670E00E947D00282F392F211531052D
S11300E019F481E08BBB08951BBA089581E08ABBA3
S11300F00E9449000E945000FDCFFB01DC018D915C
S1130100019080190110D9F3990B0895F894FFCF49
S10F0110303030313136333034350000EB
S9030000FC
