S01700004763634170706C69636174696F6E312E737265635B
S11300000C942A000C9447000C9447000C9447006D
S11300100C9447000C9447000C9447000C94470040
S11300200C9447000C9447000C9447000C94470030
S11300300C9447000C9447000C9447000C94470020
S11300400C9447000C9447000C9447000C94470010
S11300500C94470011241FBECFE5D4E0DEBFCDBF12
S113006010E0A0E6B0E0E0ECF0E002C005900D92F4
S1130070A036B107D9F710E0A0E6B0E001C01D92A8
S1130080A036B107E1F70E9454000C945E000C9472
S1130090000082E083BF8AEB82BF08B600FEFDCF7A
S11300A088B7816088BF089581E08ABBC1E0CBBB7B
S11300B00E9449001BBA0E944900F9CFF894FFCF6F
S9030000FC
