:100000000C942A000C9447000C9447000C94470071
:100010000C9447000C9447000C9447000C94470044
:100020000C9447000C9447000C9447000C94470034
:100030000C9447000C9447000C9447000C94470024
:100040000C9447000C9447000C9447000C94470014
:100050000C94470011241FBECFE5D4E0DEBFCDBF16
:1000600010E0A0E6B0E0E0EDF0E002C005900D92F7
:10007000A036B107D9F710E0A0E6B0E001C01D92AC
:10008000A036B107E1F70E945D000C9466000C9465
:100090000000539A80B5866880BD83E389B90895CE
:1000A0008CB95D9BFECF8FE39DE0A3E08150904033
:1000B000A040E1F700C0000008950E94490084E7D5
:1000C0000E94500081E60E945000FFCFF894FFCFBD
:00000001FF
