:100000000C942A000C9447000C9447000C94470071
:100010000C9447000C9447000C9447000C94470044
:100020000C9447000C9447000C9447000C94470034
:100030000C9447000C9447000C9447000C94470024
:100040000C9447000C9447000C9447000C94470014
:100050000C94470011241FBECFE5D4E0DEBFCDBF16
:1000600010E0A0E6B0E0EAECF0E002C005900D92EE
:10007000A036B107D9F710E0A0E6B0E001C01D92AC
:10008000A036B107E1F70E9457000C9463000C946E
:10009000000084E090E035E033BF12BE08B600FEF9
:1000A000FDCF28B7216028BF0197B1F7089581E0FF
:1000B0008ABBC1E00E944900CBBB0E9449001BBA29
:0A00C0000E944900F7CFF894FFCF2B
:00000001FF
