S010000050574D5F666173742E7372656313
S11300000C942A000C9447000C9447000C9447006D
S11300100C9447000C9447000C9447000C94470040
S11300200C9447000C9447000C9447000C94470030
S11300300C9447000C9447000C9447000C94470020
S11300400C9447000C9447000C9447000C94470010
S11300500C94470011241FBECFE5D4E0DEBFCDBF12
S113006010E0A0E6B0E0E8EEF0E002C005900D92EA
S1130070A036B107D9F710E0A0E6B0E001C01D92A8
S1130080A036B107E1F70E9449000C9472000C9469
S11300900000BB9A89E683BF12BE8FEB8CBF40E0A1
S11300A050E08FEF90E020E030E009C04CBFEBE47B
S11300B0FDE13197F1F700C000004F5F5F4F4F3F04
S11300C05105A4F3AC014CBFEBE4FDE13197F1F72A
S11300D000C0000041505040FFEF4F3F5F0799F7C9
S10B00E0A901EDCFF894FFCF54
S9030000FC
