:100000000C942A000C9447000C9447000C94470071
:100010000C9447000C9447000C9447000C94470044
:100020000C9447000C9447000C9447000C94470034
:100030000C9447000C9447000C9447000C94470024
:100040000C9447000C9447000C9447000C94470014
:100050000C94470011241FBECFE5D4E0DEBFCDBF16
:1000600010E0A0E6B0E0ECE0F1E002C005900D92F7
:10007000A036B107D9F710E0A0E6B0E001C01D92AC
:10008000A036B107E1F70E946B000C9484000C9439
:100090000000D898D998DA9A89EF90E00197F1F7A3
:1000A00000C00000DA9889EF90E00197F1F700C0F6
:1000B00000000895D89AD998DA9A89EF90E00197CC
:1000C000F1F700C00000DA9889EF90E00197F1F7AE
:1000D00000C00000089587E08ABB8FEF87BB88E3EC
:1000E00088BB0E9449008EE088BB0E94490086E0E0
:1000F00088BB0E94490080E888BB0E94490081E4D7
:0C01000088BB0E945A00FFCFF894FFCF8C
:00000001FF
