:100000000C942A000C9447000C9447000C94470071
:100010000C9447000C9447000C9447000C94470044
:100020000C9447000C9447000C9447000C94470034
:100030000C9447000C9447000C9447000C94470024
:100040000C9447000C9447000C9447000C94470014
:100050000C94470011241FBECFE5D4E0DEBFCDBF16
:1000600010E0A0E6B0E0E2E1F1E002C005900D9200
:10007000AE36B107D9F710E0AEE6B0E001C01D9290
:10008000A137B107E1F70E9476000C9487000C9429
:100090000000549A80B5866880BD83E389B90895CD
:1000A00010926F0010926E00E0E7F0E080E090E0C8
:1000B0005F9BFECF2CB12193019690936F008093AC
:1000C0006E008C309105A1F710927C0080E690E0E4
:1000D00060E770E00E947E00282F392F211531053E
:1000E00019F481E08BBB08951BBA089581E08ABBA7
:1000F00011BA0E9449000E945000FDCFFB01DC01B3
:100100008D91019080190110D9F3990B0895F894FD
:02011000FFCF1F
:0E011200323730303133303944424536000048
:00000001FF
