:100000000C942A000C9447000C9447000C94470071
:100010000C9447000C9447000C9447000C94470044
:100020000C9447000C9447000C9447000C94470034
:100030000C9447000C9447000C9447000C94470024
:100040000C9447000C9447000C9447000C94470014
:100050000C94470011241FBECFE5D4E0DEBFCDBF16
:1000600010E0A0E6B0E0E6EEF0E002C005900D92F0
:10007000A036B107D9F710E0A0E6B0E001C01D92AC
:10008000A036B107E1F70E9468000C9471000C944F
:100090000000549A80B5866880BD83E389B90895CD
:1000A0005F9BFECF8CB1813419F481E08BBB089546
:1000B000823419F481E088BB0895833419F481E017
:1000C00085BB0895833519F41BBA18BA15BA08957B
:1000D00081E08ABB87BB84BB0E9449000E9450001C
:0600E000FDCFF894FFCFF4
:00000001FF
