S00B000047534D2E7372656332
S11300000C942A000C9447000C9447000C9447006D
S11300100C9447000C9447000C9447000C94470040
S11300200C9447000C9447000C9447000C94470030
S11300300C9447000C9447000C9447000C94470020
S11300400C9447000C9447000C9447000C94470010
S11300500C94470011241FBECFE5D4E0DEBFCDBF12
S113006010E0A0E6B0E0EEE9F1E002C005900D92E8
S1130070AA3AB107D9F710E0AAEAB0E001C01D928C
S1130080AA3AB107E1F70E94A2000C94CD000C94A7
S11300900000539A80B5866880BD83E389B90895CA
S11300A0FC018081882369F031968CB95D9BFECF79
S11300B087EA91E60197F1F700C000008191882357
S11300C0A1F7089580E690E00E94500082E08BBB87
S11300D0089580E790E00E9450001BBA0895CF93E2
S11300E0DF930F92CDB7DEB78AE1898385E790E08D
S11300F00E9450008FE996E8A1E081509040A04012
S1130100E1F700C0000080E890E00E9450008FE713
S11301109AE1A6E081509040A040E1F700C00000C1
S113012086E990E00E945000AFE4B3EC1197F1F738
S113013000C00000CE0101960E9450000F90DF9194
S1130140CF91089587E08ABB82E081BB17BA0E94F1
S11301504900C6EAD0E011E004E0B09B08C0CE013B
S11301600E9450001BBBB099FECF1BBAF6CFB19BC7
S113017005C00E946200B199FECFEFCFB29B05C0CB
S11301800E946900B299FECFE8CFB39BE6CF0E94EC
S11101906F000BBBB399FECFE0CFF894FFCF06
S113019E415444373530333136393933333B0D001E
S11301AE4154480D0041542B434D47463D310D00FB
S11301BE41542B434D47533D22393939303438306D
S11301CE303932220D005069636B20796F757220BD
S10D01DE70686F6E650041540D0057
S9030000FC
