:100000000C942A000C9447000C9447000C94470071
:100010000C9447000C9447000C9447000C94470044
:100020000C9447000C9447000C9447000C94470034
:100030000C9447000C9447000C9447000C94470024
:100040000C9447000C9447000C9447000C94470014
:100050000C94470011241FBECFE5D4E0DEBFCDBF16
:1000600010E0A0E6B0E0EEECF1E002C005900D92E9
:10007000AC36B107D9F710E0ACE6B0E001C01D9294
:10008000AC36B107E1F70E94C1000C94E5000C9476
:100090000000982F907F9BBBD898D998DA9AEFEC04
:1000A000F7E03197F1F700C00000DA98EFECF7E0E5
:1000B0003197F1F700C0000090E082959295907F13
:1000C0009827807F98278BBBD898D998DA9A8FEC9D
:1000D00097E00197F1F700C00000DA98EFECF7E045
:1000E0003197F1F700C000000895982F907F9BBBD7
:1000F000D89AD998DA9AEFECF7E03197F1F700C087
:100100000000DA98EFECF7E03197F1F700C000005B
:100110008295807F8BBBD89AD998DA9A8FEC97E03A
:100120000197F1F700C00000DA98EFECF7E03197A3
:10013000F1F700C00000089582E00E94490088E2C3
:100140000E9449008EE00E94490086E00E9449001A
:100150000895CF93DF93EC018881882379F021966D
:100160000E9475008FEF94E3ACE081509040A04076
:10017000E1F700C000008991882391F7DF91CF91CA
:10018000089587EF8ABB0E949C0080E10E9449008D
:1001900080E80E94490080E690E00E94A900C0E04B
:1001A000D0E000E010E088E10E9449008FEF99E67E
:1001B000A8E181509040A040E1F700C000002196E6
:0E01C000C031D10584F3E801EECFF894FFCFF3
:0C01CE00456B746120536861726D610024
:00000001FF
