:100000000C942A000C9447000C9447000C94470071
:100010000C9447000C9447000C9447000C94470044
:100020000C9447000C9447000C9447000C94470034
:100030000C9447000C9447000C9447000C94470024
:100040000C9447000C9447000C9447000C94470014
:100050000C94470011241FBECFE5D4E0DEBFCDBF16
:1000600010E0A0E6B0E0E6E0F1E002C005900D92FD
:10007000A036B107D9F710E0A0E6B0E001C01D92AC
:10008000A036B107E1F70E9449000C9481000C945E
:100090000000BB9A8DE683BF12BE1CBE80E090E0DC
:1000A00054E042E120E030E002C08CBF0196843091
:1000B0009105DCF38FEF99E6A8E181509040A040D4
:1000C000E1F700C00000852F8CBF8F5F8031E1F722
:1000D0008FEF99E6A8E181509040A040E1F700C081
:1000E0000000842F8CBF8F5F8B31E1F78FEF99E693
:1000F000A8E181509040A040E1F700C00000C90194
:06010000D6CFF894FFCFFA
:00000001FF
