S00D0000617474616E2E73726563FF
S11300000C942A000C9447000C9447000C9447006D
S11300100C9447000C9447000C9447000C94470040
S11300200C9447000C9447000C9447000C94470030
S11300300C9447000C9447000C9447000C94470020
S11300400C9447000C9447000C9447000C94470010
S11300500C94470011241FBECFE5D4E0DEBFCDBF12
S113006010E0A0E6B0E0E6E1F2E002C005900D92F7
S1130070A839B107D9F710E0A8E9B0E001C01D9292
S1130080AB39B107E1F70E94F5000C9409010C9417
S113009000008AB188618AB980B5866880BD83E32F
S11300A089B90895FC018081882381F031968CB947
S11300B05D9BFECF8FEF90E7A2E081509040A0407F
S11300C0E1F700C000008191882389F708958CB975
S11300D05D9BFECF089588BBD998DA98DB9A8FECA4
S11300E097E00197F1F700C00000DB988FEC97E0F0
S11300F00197F1F700C00000089588E30E946B00A7
S11301008EE00E946B0086E00E946B00089588BB1D
S1130110D99ADA98DB9A8FEC97E00197F1F700C04F
S11301200000DB988FEC97E00197F1F700C0000026
S11301300895CF93DF93EC018881882379F0219689
S11301400E9487008FE798E3A1E081509040A0408F
S1130150E1F700C000008991882391F7DF91CF91E6
S113016008951092990010929800EAE9F0E080E076
S113017090E05F9BFECF2CB1219301969093990060
S1130180809398008C309105A1F71092A6008BE81B
S113019090E06AE970E00E940001282F392F2115B0
S11301A03105F1F480E690E00E94990080EC0E9411
S11301B06B008AE690E00E94990080E80E946B0040
S11301C084E790E00E945200D89A8FEF91EEA4E069
S11301D081509040A040E1F700C00000D898F4CFCF
S11301E0D89881E00E946B0008958FE08ABB8FEF5E
S11301F087BB0E9449000E947D000E94B100FDCF90
S1130200FB01DC018D91019080190110D9F3990B48
S10902100895F894FFCFED
S1130216414C4552542021212100454D4552474524
S11302264E4359004C61743A32382E3832342C20FD
S11302364C6F6E3A37372E31353200323030303229
S10B024643364635343337001A
S9030000FC
