:100000000C942A000C9447000C9447000C94470071
:100010000C9447000C9447000C9447000C94470044
:100020000C9447000C9447000C9447000C94470034
:100030000C9447000C9447000C9447000C94470024
:100040000C9447000C9447000C9447000C94470014
:100050000C94470011241FBECFE5D4E0DEBFCDBF16
:1000600010E0A0E6B0E0E4ECF0E002C005900D92F4
:10007000A036B107D9F710E0A0E6B0E001C01D92AC
:10008000A036B107E1F70E9457000C9460000C9471
:10009000000080E487B986B1876A86B90895369AE8
:1000A000349BFECF84B188BB85B182BB08951ABA58
:1000B0008FEF87BB81BB0E9449000E944F00FDCF9C
:0400C000F894FFCFE2
:00000001FF
