S01700004763634170706C69636174696F6E312E737265635B
S11300000C942A000C9447000C9447000C9447006D
S11300100C9447000C9447000C9447000C94470040
S11300200C9447000C9447000C9447000C94470030
S11300300C9447000C9447000C9447000C94470020
S11300400C9447000C9447000C9447000C94470010
S11300500C94470011241FBECFE5D4E0DEBFCDBF12
S113006010E0A0E6B0E0EEEDF0E002C005900D92E5
S1130070A036B107D9F710E0A0E6B0E001C01D92A8
S1130080A036B107E1F70E9449000C946D000C946E
S1130090000087E08ABB21E092E084E02BBB4FE3C1
S11300A05DE063E0415050406040E1F700C0000073
S11300B09BBB4FE35DE063E0415050406040E1F79B
S11300C000C000008BBB4FE35DE063E04150504053
S11100D06040E1F700C00000E1CFF894FFCFDC
S9030000FC
