S01000006C63645F346269742E737265630F
S11300000C942A000C9447000C9447000C9447006D
S11300100C9447000C9447000C9447000C94470040
S11300200C9447000C9447000C9447000C94470030
S11300300C9447000C9447000C9447000C94470020
S11300400C9447000C9447000C9447000C94470010
S11300500C94470011241FBECFE5D4E0DEBFCDBF12
S113006010E0A0E6B0E0E4EBF1E002C005900D92F0
S1130070A037B107D9F710E0A0E7B0E001C01D92A6
S1130080A037B107E1F70E94C9000C94D8000C9482
S11300900000982F907F98BBC098C198C29AE9EF4E
S11300A0F0E03197F1F700C00000C298E9EFF0E00A
S11300B03197F1F700C0000090E082959295907F0F
S11300C09827807F982788BBC098C198C29A89EFE7
S11300D090E00197F1F700C00000C298E9EFF0E06A
S11300E03197F1F700C00000089582E00E944900B2
S11300F088E20E94490086E00E9449008EE00E9446
S1130100490080E80E9449000895982F907F98BB89
S1130110C09AC198C29AE9EFF0E03197F1F700C0B4
S11301200000C298E9EFF0E03197F1F700C0000059
S113013090E082959295907F9827807F982788BB3E
S1130140C09AC198C29A89EF90E00197F1F700C074
S11301500000C298E9EFF0E03197F1F700C0000029
S11301600895CF93DF93EC018881882379F0219659
S11301700E9485008FE996E8A1E081509040A0405C
S1130180E1F700C000008991882391F7DF91CF91B6
S113019008958FEF87BB0E94750081E40E9485005B
S11301A080EC0E94490080E690E00E94B100FFCFFD
S10701B0F894FFCFED
S11301B457454C434F4D4520544F20484D52000061
S9030000FC
