S00E0000726669645F312E73726563E1
S11300000C942A000C9447000C9447000C9447006D
S11300100C9447000C9447000C9447000C94470040
S11300200C9447000C9447000C9447000C94470030
S11300300C9447000C9447000C9447000C94470020
S11300400C9447000C9447000C9447000C94470010
S11300500C94470011241FBECFE5D4E0DEBFCDBF12
S113006010E0A0E6B0E0EAEAF1E002C005900D92EB
S1130070A836B107D9F710E0A8E6B0E001C01D9298
S1130080AA36B107E1F70E94CB000C94D3000C947C
S11300900000549A80B5866880BD83E389B90895C9
S11300A00F931F93CF93DF93CDB7DEB76DB77EB7B2
S11300B020916000309161008DB79EB7821B930B35
S11300C00FB6F8949EBF0FBE8DBFEDB7FEB7319645
S11300D0AF011092690010926800121613060CF01A
S11300E044C080E090E05F9BFECF2CB1840F951F4D
S11300F0DC012C9389EF90E00197F1F700C0000038
S113010080916800909169000196909369008093B2
S113011068002091600030916100821793071CF3FE
S1130120A90110926900109268001216130604F5D2
S11301309081809162009817F1F43196A3E6B0E0C3
S113014080E090E009C001911D91011729F080938E
S113015068009093690011C001968417950799F778
S113016090936900809368000BC080E090E005C024
S113017080E090E002C080E090E08217930709F4E9
S1130180D89A0FB6F8947EBF0FBE6DBFDF91CF91A2
S11301901F910F91089581E08ABB11BA0E94490012
S10D01A00E945000FDCFF894FFCF39
S10B01AA05000001020304003A
S9030000FC
