S01700004763634170706C69636174696F6E342E7372656358
S11300000C942A000C9447000C9447000C9447006D
S11300100C9447000C9447000C9447000C94470040
S11300200C9447000C9447000C9447000C94470030
S11300300C9447000C9447000C9447000C94470020
S11300400C9447000C9447000C9447000C94470010
S11300500C94470011241FBECFE5D4E0DEBFCDBF12
S113006010E0A0E6B0E0E8ECF0E002C005900D92EC
S1130070AA36B107D9F710E0AAE6B0E001C01D9294
S1130080AA36B107E1F70E9449000C9462000C946F
S113009000008FEF8ABB11BA80E090E020E630E0E8
S11300A040E050E001C0CA01809B08C0F901E80F9C
S11300B0F91F60816BBB01968099FECF8A30910550
S10B00C099F7F1CFF894FFCF8A
S10D00C83F065B4F666D7D077F67FE
S9030000FC
