:100000000C942A000C9447000C9447000C94470071
:100010000C9447000C9447000C9447000C94470044
:100020000C9447000C9447000C9447000C94470034
:100030000C9447000C9447000C9447000C94470024
:100040000C9447000C9447000C9447000C94470014
:100050000C94470011241FBECFE5D4E0DEBFCDBF16
:1000600010E0A0E6B0E0E4E5F2E002C005900D92F9
:10007000A036B107D9F710E0A0E6B0E001C01D92AC
:10008000A436B107E1F70E94F1000C9428010C940A
:100090000000EF92FF920F931F93CF93DF938C0199
:1000A000C2ECD0E00F2EFAE0EF2EFF24F02DCE01AF
:1000B0000E946D00C801B7010E9401018B01C0962A
:1000C0000E9499002197CF3BD10589F7DF91CF910D
:1000D0001F910F91FF90EF900895982F907F9BBBF9
:1000E000D898D998DA9AEFECF7E03197F1F700C099
:1000F0000000DA98EFECF7E03197F1F700C000006C
:1001000090E082959295907F9827807F98278BBB6F
:10011000D898D998DA9A8FEC97E00197F1F700C058
:100120000000DA98EFECF7E03197F1F700C000003B
:100130000895982F907F9BBBD89AD998DA9AEFECC4
:10014000F7E03197F1F700C00000DA98EFECF7E044
:100150003197F1F700C000008295807F8BBBD89A61
:10016000D998DA9A8FEC97E00197F1F700C0000078
:10017000DA98EFECF7E03197F1F700C0000008954E
:1001800086E083BF12BE089582B790E00E944900C6
:1001900008B600FEF9CF089582E00E946D0088E263
:1001A0000E946D008EE00E946D0086E00E946D004E
:1001B0000895CF93DF93EC018881882379F021960D
:1001C0000E9499008FEF94E3ACE081509040A040F2
:1001D000E1F700C000008991882391F7DF91CF916A
:1001E00008951ABA8FEF8ABB0E94C0000E94CC000B
:1001F00080E10E946D0080E80E946D000E94C400B2
:10020000FDCF97FB092E07260AD077FD04D00CD02E
:1002100006D000201AF4709561957F4F0895F6F787
:10022000909581959F4F0895AA1BBB1B51E107C074
:10023000AA1FBB1FA617B70710F0A61BB70B881F76
:10024000991F5A95A9F780959095BC01CD01089505
:04025000F894FFCF50
:00000001FF
