:100000000C942A000C9447000C9447000C94470071
:100010000C9447000C9447000C9447000C94470044
:100020000C9447000C9447000C9447000C94470034
:100030000C9447000C9447000C9447000C94470024
:100040000C9447000C9447000C9447000C94470014
:100050000C94470011241FBECFE5D4E0DEBFCDBF16
:1000600010E0A0E6B0E0E0EDF1E002C005900D92F6
:10007000A039B107D9F710E0A0E9B0E001C01D92A6
:10008000A039B107E1F70E94D5000C94E6000C946A
:1000900000008AB188618AB980B5866880BD83E333
:1000A00089B90895FC018081882339F031968CB993
:1000B0005D9BFECF81918823D1F708958CB95D9B1C
:1000C000FECF0895CF93DF930F92CDB7DEB78AE1CD
:1000D00089838FEF94E3ACE081509040A040E1F73A
:1000E00000C0000080E690E00E9452008FEF93ED88
:1000F000A0E381509040A040E1F700C00000CE0195
:1001000001960E9452000F90DF91CF910895CF93F6
:10011000DF930F92CDB7DEB78AE189838FEF94E347
:10012000ACE081509040A040E1F700C0000080E7C3
:1001300090E00E9452008FEF93EDA0E38150904039
:10014000A040E1F700C00000CE0101960E945200DD
:100150000F90DF91CF910895CF93DF930F92CDB79A
:10016000DEB78AE1898386E790E00E9452008FEF34
:1001700094E3ACE081509040A040E1F700C0000063
:100180008FEF93EDA0E381509040A040E1F700C0D5
:10019000000083E890E00E945200CE0101960E9488
:1001A00052000F90DF91CF9108951ABA0E94490032
:1001B000C89B05C00E946200C899FECFF9CFC99BB9
:1001C000F7CF0E948700C999FECFF2CFF894FFCFF6
:1001D000415444393939303438303039323B0D00EC
:1001E0004154483B0D0041542B434D47463D313B64
:1001F0002F720068656C6C6F20736872697961009A
:00000001FF
